{
  "contractName": "AuctionSPSB",
  "abi": [
    {
      "inputs": [
        {
          "internalType": "contract IERC721",
          "name": "_nft",
          "type": "address"
        },
        {
          "internalType": "uint256",
          "name": "_nftId",
          "type": "uint256"
        },
        {
          "internalType": "uint256",
          "name": "_endTime",
          "type": "uint256"
        },
        {
          "internalType": "uint256",
          "name": "_minPrice",
          "type": "uint256"
        }
      ],
      "stateMutability": "nonpayable",
      "type": "constructor"
    },
    {
      "anonymous": false,
      "inputs": [
        {
          "indexed": true,
          "internalType": "address",
          "name": "winner",
          "type": "address"
        },
        {
          "indexed": false,
          "internalType": "uint256",
          "name": "amount",
          "type": "uint256"
        }
      ],
      "name": "AuctionEnded",
      "type": "event"
    },
    {
      "anonymous": false,
      "inputs": [],
      "name": "AuctionStarted",
      "type": "event"
    },
    {
      "anonymous": false,
      "inputs": [
        {
          "indexed": true,
          "internalType": "address",
          "name": "bidder",
          "type": "address"
        }
      ],
      "name": "BidPlaced",
      "type": "event"
    },
    {
      "inputs": [],
      "name": "auctionStarted",
      "outputs": [
        {
          "internalType": "bool",
          "name": "",
          "type": "bool"
        }
      ],
      "stateMutability": "view",
      "type": "function"
    },
    {
      "inputs": [],
      "name": "endTime",
      "outputs": [
        {
          "internalType": "uint256",
          "name": "",
          "type": "uint256"
        }
      ],
      "stateMutability": "view",
      "type": "function"
    },
    {
      "inputs": [],
      "name": "highestBidder",
      "outputs": [
        {
          "internalType": "address payable",
          "name": "",
          "type": "address"
        }
      ],
      "stateMutability": "view",
      "type": "function"
    },
    {
      "inputs": [],
      "name": "nft",
      "outputs": [
        {
          "internalType": "contract IERC721",
          "name": "",
          "type": "address"
        }
      ],
      "stateMutability": "view",
      "type": "function"
    },
    {
      "inputs": [],
      "name": "nftId",
      "outputs": [
        {
          "internalType": "uint256",
          "name": "",
          "type": "uint256"
        }
      ],
      "stateMutability": "view",
      "type": "function"
    },
    {
      "inputs": [
        {
          "internalType": "address",
          "name": "",
          "type": "address"
        },
        {
          "internalType": "address",
          "name": "",
          "type": "address"
        },
        {
          "internalType": "uint256",
          "name": "",
          "type": "uint256"
        },
        {
          "internalType": "bytes",
          "name": "",
          "type": "bytes"
        }
      ],
      "name": "onERC721Received",
      "outputs": [
        {
          "internalType": "bytes4",
          "name": "",
          "type": "bytes4"
        }
      ],
      "stateMutability": "nonpayable",
      "type": "function"
    },
    {
      "inputs": [],
      "name": "seller",
      "outputs": [
        {
          "internalType": "address payable",
          "name": "",
          "type": "address"
        }
      ],
      "stateMutability": "view",
      "type": "function"
    },
    {
      "stateMutability": "payable",
      "type": "receive"
    },
    {
      "inputs": [],
      "name": "startAuction",
      "outputs": [],
      "stateMutability": "nonpayable",
      "type": "function"
    },
    {
      "inputs": [],
      "name": "placeBid",
      "outputs": [],
      "stateMutability": "payable",
      "type": "function"
    },
    {
      "inputs": [],
      "name": "EndAuction",
      "outputs": [],
      "stateMutability": "nonpayable",
      "type": "function"
    }
  ],
  "bytecode": "0x608060405234801562000010575f80fd5b506040516200153f3803806200153f83398181016040528101906200003691906200019d565b8360055f6101000a81548173ffffffffffffffffffffffffffffffffffffffff021916908373ffffffffffffffffffffffffffffffffffffffff160217905550826006819055508160018190555080600381905550335f806101000a81548173ffffffffffffffffffffffffffffffffffffffff021916908373ffffffffffffffffffffffffffffffffffffffff1602179055505f60075f6101000a81548160ff021916908315150217905550505050506200020c565b5f80fd5b5f73ffffffffffffffffffffffffffffffffffffffff82169050919050565b5f6200011c82620000f1565b9050919050565b5f6200012f8262000110565b9050919050565b620001418162000123565b81146200014c575f80fd5b50565b5f815190506200015f8162000136565b92915050565b5f819050919050565b620001798162000165565b811462000184575f80fd5b50565b5f8151905062000197816200016e565b92915050565b5f805f8060808587031215620001b857620001b7620000ed565b5b5f620001c7878288016200014f565b9450506020620001da8782880162000187565b9350506040620001ed8782880162000187565b9250506060620002008782880162000187565b91505092959194509250565b611325806200021a5f395ff3fe608060405260043610610094575f3560e01c80636b64c769116100585780636b64c7691461016f57806391f9015714610185578063c6bc5182146101af578063ecfc7ecc146101d9578063ee2679bc146101e35761009b565b806308551a531461009f578063150b7a02146100c95780633197cbb61461010557806347ccca021461012f5780636a7798ee146101595761009b565b3661009b57005b5f80fd5b3480156100aa575f80fd5b506100b361020d565b6040516100c09190610bfb565b60405180910390f35b3480156100d4575f80fd5b506100ef60048036038101906100ea9190610dcf565b610230565b6040516100fc9190610e89565b60405180910390f35b348015610110575f80fd5b50610119610243565b6040516101269190610eb1565b60405180910390f35b34801561013a575f80fd5b50610143610249565b6040516101509190610f25565b60405180910390f35b348015610164575f80fd5b5061016d61026e565b005b34801561017a575f80fd5b506101836105f2565b005b348015610190575f80fd5b506101996108e9565b6040516101a69190610bfb565b60405180910390f35b3480156101ba575f80fd5b506101c361090e565b6040516101d09190610eb1565b60405180910390f35b6101e1610914565b005b3480156101ee575f80fd5b506101f7610baa565b6040516102049190610f58565b60405180910390f35b5f8054906101000a900473ffffffffffffffffffffffffffffffffffffffff1681565b5f63150b7a0260e01b9050949350505050565b60015481565b60055f9054906101000a900473ffffffffffffffffffffffffffffffffffffffff1681565b60075f9054906101000a900460ff166102bc576040517f08c379a00000000000000000000000000000000000000000000000000000000081526004016102b390610fcb565b60405180910390fd5b600154421015610301576040517f08c379a00000000000000000000000000000000000000000000000000000000081526004016102f890611033565b60405180910390fd5b5f73ffffffffffffffffffffffffffffffffffffffff1660025f9054906101000a900473ffffffffffffffffffffffffffffffffffffffff1673ffffffffffffffffffffffffffffffffffffffff16146104d25760055f9054906101000a900473ffffffffffffffffffffffffffffffffffffffff1673ffffffffffffffffffffffffffffffffffffffff166323b872dd3060025f9054906101000a900473ffffffffffffffffffffffffffffffffffffffff166006546040518463ffffffff1660e01b81526004016103d693929190611080565b5f604051808303815f87803b1580156103ed575f80fd5b505af11580156103ff573d5f803e3d5ffd5b505050505f8054906101000a900473ffffffffffffffffffffffffffffffffffffffff1673ffffffffffffffffffffffffffffffffffffffff166108fc60045490811502906040515f60405180830381858888f19350505050158015610467573d5f803e3d5ffd5b5060025f9054906101000a900473ffffffffffffffffffffffffffffffffffffffff1673ffffffffffffffffffffffffffffffffffffffff166108fc4790811502906040515f60405180830381858888f193505050501580156104cc573d5f803e3d5ffd5b5061057f565b60055f9054906101000a900473ffffffffffffffffffffffffffffffffffffffff1673ffffffffffffffffffffffffffffffffffffffff166323b872dd305f8054906101000a900473ffffffffffffffffffffffffffffffffffffffff166006546040518463ffffffff1660e01b815260040161055193929190611080565b5f604051808303815f87803b158015610568575f80fd5b505af115801561057a573d5f803e3d5ffd5b505050505b60025f9054906101000a900473ffffffffffffffffffffffffffffffffffffffff1673ffffffffffffffffffffffffffffffffffffffff167fdaec4582d5d9595688c8c98545fdd1c696d41c6aeaeb636737e84ed2f5c00eda6004546040516105e89190610eb1565b60405180910390a2565b5f8054906101000a900473ffffffffffffffffffffffffffffffffffffffff1673ffffffffffffffffffffffffffffffffffffffff163373ffffffffffffffffffffffffffffffffffffffff161461067f576040517f08c379a000000000000000000000000000000000000000000000000000000000815260040161067690611125565b60405180910390fd5b60075f9054906101000a900460ff16156106ce576040517f08c379a00000000000000000000000000000000000000000000000000000000081526004016106c59061118d565b60405180910390fd5b5f8054906101000a900473ffffffffffffffffffffffffffffffffffffffff1673ffffffffffffffffffffffffffffffffffffffff1660055f9054906101000a900473ffffffffffffffffffffffffffffffffffffffff1673ffffffffffffffffffffffffffffffffffffffff16636352211e6006546040518263ffffffff1660e01b81526004016107609190610eb1565b602060405180830381865afa15801561077b573d5f803e3d5ffd5b505050506040513d601f19601f8201168201806040525081019061079f91906111bf565b73ffffffffffffffffffffffffffffffffffffffff16146107f5576040517f08c379a00000000000000000000000000000000000000000000000000000000081526004016107ec90611234565b60405180910390fd5b60055f9054906101000a900473ffffffffffffffffffffffffffffffffffffffff1673ffffffffffffffffffffffffffffffffffffffff166342842e0e5f8054906101000a900473ffffffffffffffffffffffffffffffffffffffff16306006546040518463ffffffff1660e01b815260040161087493929190611252565b5f604051808303815f87803b15801561088b575f80fd5b505af115801561089d573d5f803e3d5ffd5b50505050600160075f6101000a81548160ff0219169083151502179055507fc8f99b9ac2a284b93c3652b9f064a6706724088cdafa9e0a8437c026191b2f0360405160405180910390a1565b60025f9054906101000a900473ffffffffffffffffffffffffffffffffffffffff1681565b60065481565b60075f9054906101000a900460ff16610962576040517f08c379a000000000000000000000000000000000000000000000000000000000815260040161095990610fcb565b60405180910390fd5b60015442106109a6576040517f08c379a000000000000000000000000000000000000000000000000000000000815260040161099d906112d1565b60405180910390fd5b60035434111580156109ba57506004543410155b15610a4e573373ffffffffffffffffffffffffffffffffffffffff166108fc3490811502906040515f60405180830381858888f19350505050158015610a02573d5f803e3d5ffd5b50346004819055503373ffffffffffffffffffffffffffffffffffffffff167fe677a6b9a16a696674f50d2c98a1ce8c5cb51d6b48a0223412c512bbc93664d560405160405180910390a25b600354341115610ba8575f73ffffffffffffffffffffffffffffffffffffffff1660025f9054906101000a900473ffffffffffffffffffffffffffffffffffffffff1673ffffffffffffffffffffffffffffffffffffffff1614610b145760025f9054906101000a900473ffffffffffffffffffffffffffffffffffffffff1673ffffffffffffffffffffffffffffffffffffffff166108fc60035490811502906040515f60405180830381858888f19350505050158015610b12573d5f803e3d5ffd5b505b3360025f6101000a81548173ffffffffffffffffffffffffffffffffffffffff021916908373ffffffffffffffffffffffffffffffffffffffff160217905550600354600481905550346003819055503373ffffffffffffffffffffffffffffffffffffffff167fe677a6b9a16a696674f50d2c98a1ce8c5cb51d6b48a0223412c512bbc93664d560405160405180910390a25b565b60075f9054906101000a900460ff1681565b5f73ffffffffffffffffffffffffffffffffffffffff82169050919050565b5f610be582610bbc565b9050919050565b610bf581610bdb565b82525050565b5f602082019050610c0e5f830184610bec565b92915050565b5f604051905090565b5f80fd5b5f80fd5b5f610c2f82610bbc565b9050919050565b610c3f81610c25565b8114610c49575f80fd5b50565b5f81359050610c5a81610c36565b92915050565b5f819050919050565b610c7281610c60565b8114610c7c575f80fd5b50565b5f81359050610c8d81610c69565b92915050565b5f80fd5b5f80fd5b5f601f19601f8301169050919050565b7f4e487b71000000000000000000000000000000000000000000000000000000005f52604160045260245ffd5b610ce182610c9b565b810181811067ffffffffffffffff82111715610d0057610cff610cab565b5b80604052505050565b5f610d12610c14565b9050610d1e8282610cd8565b919050565b5f67ffffffffffffffff821115610d3d57610d3c610cab565b5b610d4682610c9b565b9050602081019050919050565b828183375f83830152505050565b5f610d73610d6e84610d23565b610d09565b905082815260208101848484011115610d8f57610d8e610c97565b5b610d9a848285610d53565b509392505050565b5f82601f830112610db657610db5610c93565b5b8135610dc6848260208601610d61565b91505092915050565b5f805f8060808587031215610de757610de6610c1d565b5b5f610df487828801610c4c565b9450506020610e0587828801610c4c565b9350506040610e1687828801610c7f565b925050606085013567ffffffffffffffff811115610e3757610e36610c21565b5b610e4387828801610da2565b91505092959194509250565b5f7fffffffff0000000000000000000000000000000000000000000000000000000082169050919050565b610e8381610e4f565b82525050565b5f602082019050610e9c5f830184610e7a565b92915050565b610eab81610c60565b82525050565b5f602082019050610ec45f830184610ea2565b92915050565b5f819050919050565b5f610eed610ee8610ee384610bbc565b610eca565b610bbc565b9050919050565b5f610efe82610ed3565b9050919050565b5f610f0f82610ef4565b9050919050565b610f1f81610f05565b82525050565b5f602082019050610f385f830184610f16565b92915050565b5f8115159050919050565b610f5281610f3e565b82525050565b5f602082019050610f6b5f830184610f49565b92915050565b5f82825260208201905092915050565b7f41756374696f6e20686173206e6f7420737461727465640000000000000000005f82015250565b5f610fb5601783610f71565b9150610fc082610f81565b602082019050919050565b5f6020820190508181035f830152610fe281610fa9565b9050919050565b7f41756374696f6e20686173206e6f7420656e64656420796574000000000000005f82015250565b5f61101d601983610f71565b915061102882610fe9565b602082019050919050565b5f6020820190508181035f83015261104a81611011565b9050919050565b61105a81610c25565b82525050565b5f61106a82610ef4565b9050919050565b61107a81611060565b82525050565b5f6060820190506110935f830186611051565b6110a06020830185611071565b6110ad6040830184610ea2565b949350505050565b7f4f6e6c79207468652073656c6c65722063616e207374617274207468652061755f8201527f6374696f6e000000000000000000000000000000000000000000000000000000602082015250565b5f61110f602583610f71565b915061111a826110b5565b604082019050919050565b5f6020820190508181035f83015261113c81611103565b9050919050565b7f41756374696f6e2068617320616c7265616479207374617274656400000000005f82015250565b5f611177601b83610f71565b915061118282611143565b602082019050919050565b5f6020820190508181035f8301526111a48161116b565b9050919050565b5f815190506111b981610c36565b92915050565b5f602082840312156111d4576111d3610c1d565b5b5f6111e1848285016111ab565b91505092915050565b7f53656c6c657220646f6573206e6f74206f776e20746865204e465400000000005f82015250565b5f61121e601b83610f71565b9150611229826111ea565b602082019050919050565b5f6020820190508181035f83015261124b81611212565b9050919050565b5f6060820190506112655f830186611071565b6112726020830185611051565b61127f6040830184610ea2565b949350505050565b7f41756374696f6e2068617320656e6465640000000000000000000000000000005f82015250565b5f6112bb601183610f71565b91506112c682611287565b602082019050919050565b5f6020820190508181035f8301526112e8816112af565b905091905056fea2646970667358221220495168904a3a9ecd69281bbd28e5aea9daebd04f2d173be5d00b8d2e1471270464736f6c63430008150033",
  "immutableReferences": {},
  "source": "// SPDX-License-Identifier: MIT\r\npragma solidity ^0.8.0;\r\n\r\nimport \"@openzeppelin/contracts/token/ERC721/IERC721.sol\";\r\nimport \"@openzeppelin/contracts/token/ERC721/utils/ERC721Holder.sol\";\r\n\r\n// auction Second Price Sealed Bid (SPSB)\r\ncontract AuctionSPSB is ERC721Holder {\r\n    address payable public seller;\r\n    uint public endTime;\r\n    address payable public highestBidder;\r\n    uint private _highestBid;\r\n    uint private _secondBid;\r\n    IERC721 public nft;\r\n    uint public nftId;\r\n    bool public auctionStarted;\r\n\r\n    event AuctionStarted();\r\n    event BidPlaced(address indexed bidder);\r\n    event AuctionEnded(address indexed winner, uint amount);\r\n\r\n    // creates a new auction, the msg.sender becomes 'seller'\r\n    constructor(IERC721 _nft, uint _nftId, uint _endTime, uint _minPrice) {\r\n        nft = _nft;\r\n        nftId = _nftId;\r\n        endTime = _endTime;\r\n        _highestBid = _minPrice;\r\n        seller = payable(msg.sender);\r\n        auctionStarted = false;\r\n    }\r\n\r\n    // receiver to get paid and lock funds (escrow)\r\n    receive() external payable {}\r\n\r\n    // seller starts auction\r\n    function startAuction() external {\r\n        require(msg.sender == seller, \"Only the seller can start the auction\");\r\n        require(!auctionStarted, \"Auction has already started\");\r\n        require(nft.ownerOf(nftId) == seller, \"Seller does not own the NFT\");\r\n\r\n        nft.safeTransferFrom(seller, address(this), nftId);\r\n        auctionStarted = true;\r\n\r\n        emit AuctionStarted();\r\n    }\r\n\r\n    // bidder can place bids\r\n    function placeBid() external payable {\r\n        require(auctionStarted, \"Auction has not started\");\r\n        require(block.timestamp < endTime, \"Auction has ended\");\r\n\r\n        // bid too low only updates the second price\r\n        // contract will reject and pay you back immediately\r\n        if (msg.value <= _highestBid && msg.value >= _secondBid) {\r\n            payable(msg.sender).transfer(msg.value);\r\n            _secondBid = msg.value;\r\n            emit BidPlaced(msg.sender);\r\n        }\r\n            \r\n        // bid high enough and you become highest bidder\r\n        // escrow contract model will still lock your money\r\n        // will return the change once contract ends & paid second price\r\n        if (msg.value > _highestBid) {\r\n            // refund the previous bidder\r\n            if (highestBidder != address(0)) {\r\n                payable(highestBidder).transfer(_highestBid);\r\n            }\r\n\r\n            highestBidder = payable(msg.sender);\r\n            _secondBid = _highestBid;\r\n            _highestBid = msg.value;\r\n\r\n            emit BidPlaced(msg.sender);\r\n        }\r\n    }\r\n\r\n    // after a certain time, auction can be ended.\r\n    // anyone can end. the logic is the same.\r\n    function EndAuction() external {\r\n        require(auctionStarted, \"Auction has not started\");\r\n        require(block.timestamp >= endTime, \"Auction has not ended yet\");\r\n\r\n        // if bidder exists, exchange NFT to bidder and ETH to seller\r\n        // highest bidder only needs to pay second price\r\n        if (highestBidder != address(0)) {\r\n            nft.transferFrom(address(this), highestBidder, nftId);\r\n            seller.transfer(_secondBid);\r\n            highestBidder.transfer(address(this).balance);\r\n        // otherwise return to seller\r\n        } else {\r\n            nft.transferFrom(address(this), seller, nftId);\r\n        }\r\n\r\n        emit AuctionEnded(highestBidder, _secondBid);\r\n    }\r\n}\r\n",
  "sourcePath": "C:\\Users\\Twinklierre\\Desktop\\Workbench\\SIIT\\Courses\\DES484-NFT-Auction\\contracts\\AuctionSPSB.sol",
  "compiler": {
    "name": "solc",
    "version": "0.8.21+commit.d9974bed.Emscripten.clang"
  },
  "schemaVersion": "3.4.16",
  "updatedAt": "2024-12-15T14:12:20.770Z",
  "devdoc": {
    "kind": "dev",
    "methods": {
      "onERC721Received(address,address,uint256,bytes)": {
        "details": "See {IERC721Receiver-onERC721Received}. Always returns `IERC721Receiver.onERC721Received.selector`."
      }
    },
    "version": 1
  },
  "userdoc": {
    "kind": "user",
    "methods": {},
    "version": 1
  }
}