{
  "contractName": "AuctionDutch",
  "abi": [
    {
      "inputs": [
        {
          "internalType": "contract IERC721",
          "name": "_nft",
          "type": "address"
        },
        {
          "internalType": "uint256",
          "name": "_nftId",
          "type": "uint256"
        },
        {
          "internalType": "uint256",
          "name": "_startTime",
          "type": "uint256"
        },
        {
          "internalType": "uint256",
          "name": "_endTime",
          "type": "uint256"
        },
        {
          "internalType": "uint256",
          "name": "_startingPrice",
          "type": "uint256"
        },
        {
          "internalType": "uint256",
          "name": "_decrementPerSec",
          "type": "uint256"
        }
      ],
      "stateMutability": "nonpayable",
      "type": "constructor"
    },
    {
      "anonymous": false,
      "inputs": [
        {
          "indexed": true,
          "internalType": "address",
          "name": "buyer",
          "type": "address"
        }
      ],
      "name": "AuctionEnded",
      "type": "event"
    },
    {
      "anonymous": false,
      "inputs": [],
      "name": "AuctionStarted",
      "type": "event"
    },
    {
      "inputs": [],
      "name": "buyer",
      "outputs": [
        {
          "internalType": "address",
          "name": "",
          "type": "address"
        }
      ],
      "stateMutability": "view",
      "type": "function"
    },
    {
      "inputs": [],
      "name": "decrementPerSec",
      "outputs": [
        {
          "internalType": "uint256",
          "name": "",
          "type": "uint256"
        }
      ],
      "stateMutability": "view",
      "type": "function"
    },
    {
      "inputs": [],
      "name": "endTime",
      "outputs": [
        {
          "internalType": "uint256",
          "name": "",
          "type": "uint256"
        }
      ],
      "stateMutability": "view",
      "type": "function"
    },
    {
      "inputs": [],
      "name": "isActive",
      "outputs": [
        {
          "internalType": "bool",
          "name": "",
          "type": "bool"
        }
      ],
      "stateMutability": "view",
      "type": "function"
    },
    {
      "inputs": [],
      "name": "nft",
      "outputs": [
        {
          "internalType": "contract IERC721",
          "name": "",
          "type": "address"
        }
      ],
      "stateMutability": "view",
      "type": "function"
    },
    {
      "inputs": [],
      "name": "nftId",
      "outputs": [
        {
          "internalType": "uint256",
          "name": "",
          "type": "uint256"
        }
      ],
      "stateMutability": "view",
      "type": "function"
    },
    {
      "inputs": [
        {
          "internalType": "address",
          "name": "",
          "type": "address"
        },
        {
          "internalType": "address",
          "name": "",
          "type": "address"
        },
        {
          "internalType": "uint256",
          "name": "",
          "type": "uint256"
        },
        {
          "internalType": "bytes",
          "name": "",
          "type": "bytes"
        }
      ],
      "name": "onERC721Received",
      "outputs": [
        {
          "internalType": "bytes4",
          "name": "",
          "type": "bytes4"
        }
      ],
      "stateMutability": "nonpayable",
      "type": "function"
    },
    {
      "inputs": [],
      "name": "seller",
      "outputs": [
        {
          "internalType": "address payable",
          "name": "",
          "type": "address"
        }
      ],
      "stateMutability": "view",
      "type": "function"
    },
    {
      "inputs": [],
      "name": "startTime",
      "outputs": [
        {
          "internalType": "uint256",
          "name": "",
          "type": "uint256"
        }
      ],
      "stateMutability": "view",
      "type": "function"
    },
    {
      "inputs": [],
      "name": "startingPrice",
      "outputs": [
        {
          "internalType": "uint256",
          "name": "",
          "type": "uint256"
        }
      ],
      "stateMutability": "view",
      "type": "function"
    },
    {
      "stateMutability": "payable",
      "type": "receive"
    },
    {
      "inputs": [],
      "name": "startAuction",
      "outputs": [],
      "stateMutability": "nonpayable",
      "type": "function"
    },
    {
      "inputs": [],
      "name": "buyNFT",
      "outputs": [],
      "stateMutability": "payable",
      "type": "function"
    },
    {
      "inputs": [],
      "name": "calculateCurrentPrice",
      "outputs": [
        {
          "internalType": "uint256",
          "name": "",
          "type": "uint256"
        }
      ],
      "stateMutability": "view",
      "type": "function"
    }
  ],
  "bytecode": "0x608060405234801562000010575f80fd5b506040516200161c3803806200161c8339818101604052810190620000369190620001ad565b8560055f6101000a81548173ffffffffffffffffffffffffffffffffffffffff021916908373ffffffffffffffffffffffffffffffffffffffff1602179055508460068190555083600181905550826002819055508160038190555080600481905550335f806101000a81548173ffffffffffffffffffffffffffffffffffffffff021916908373ffffffffffffffffffffffffffffffffffffffff1602179055505f60075f6101000a81548160ff02191690831515021790555050505050505062000245565b5f80fd5b5f73ffffffffffffffffffffffffffffffffffffffff82169050919050565b5f6200012c8262000101565b9050919050565b5f6200013f8262000120565b9050919050565b620001518162000133565b81146200015c575f80fd5b50565b5f815190506200016f8162000146565b92915050565b5f819050919050565b620001898162000175565b811462000194575f80fd5b50565b5f81519050620001a7816200017e565b92915050565b5f805f805f8060c08789031215620001ca57620001c9620000fd565b5b5f620001d989828a016200015f565b9650506020620001ec89828a0162000197565b9550506040620001ff89828a0162000197565b94505060606200021289828a0162000197565b93505060806200022589828a0162000197565b92505060a06200023889828a0162000197565b9150509295509295509295565b6113c980620002535f395ff3fe6080604052600436106100c5575f3560e01c80634d31c57a1161007e57806378e979251161005857806378e9792514610248578063bff29cee14610272578063c6bc51821461027c578063d6fbf202146102a6576100cc565b80634d31c57a146101de5780636b64c769146102085780637150d8ae1461021e576100cc565b806308551a53146100d0578063150b7a02146100fa57806322f3e2d41461013657806328aa8267146101605780633197cbb61461018a57806347ccca02146101b4576100cc565b366100cc57005b5f80fd5b3480156100db575f80fd5b506100e46102d0565b6040516100f19190610a87565b60405180910390f35b348015610105575f80fd5b50610120600480360381019061011b9190610c5b565b6102f3565b60405161012d9190610d15565b60405180910390f35b348015610141575f80fd5b5061014a610306565b6040516101579190610d48565b60405180910390f35b34801561016b575f80fd5b50610174610318565b6040516101819190610d70565b60405180910390f35b348015610195575f80fd5b5061019e61031e565b6040516101ab9190610d70565b60405180910390f35b3480156101bf575f80fd5b506101c8610324565b6040516101d59190610de4565b60405180910390f35b3480156101e9575f80fd5b506101f2610349565b6040516101ff9190610d70565b60405180910390f35b348015610213575f80fd5b5061021c610394565b005b348015610229575f80fd5b50610232610716565b60405161023f9190610e0c565b60405180910390f35b348015610253575f80fd5b5061025c61073c565b6040516102699190610d70565b60405180910390f35b61027a610742565b005b348015610287575f80fd5b50610290610a3c565b60405161029d9190610d70565b60405180910390f35b3480156102b1575f80fd5b506102ba610a42565b6040516102c79190610d70565b60405180910390f35b5f8054906101000a900473ffffffffffffffffffffffffffffffffffffffff1681565b5f63150b7a0260e01b9050949350505050565b60075f9054906101000a900460ff1681565b60045481565b60025481565b60055f9054906101000a900473ffffffffffffffffffffffffffffffffffffffff1681565b5f80600154426103599190610e52565b90505f6004548261036a9190610e85565b90505f8160035461037b9190610e52565b90505f811161038a575f61038c565b805b935050505090565b5f8054906101000a900473ffffffffffffffffffffffffffffffffffffffff1673ffffffffffffffffffffffffffffffffffffffff163373ffffffffffffffffffffffffffffffffffffffff1614610421576040517f08c379a000000000000000000000000000000000000000000000000000000000815260040161041890610f46565b60405180910390fd5b60075f9054906101000a900460ff1615610470576040517f08c379a000000000000000000000000000000000000000000000000000000000815260040161046790610fae565b60405180910390fd5b5f8054906101000a900473ffffffffffffffffffffffffffffffffffffffff1673ffffffffffffffffffffffffffffffffffffffff1660055f9054906101000a900473ffffffffffffffffffffffffffffffffffffffff1673ffffffffffffffffffffffffffffffffffffffff16636352211e6006546040518263ffffffff1660e01b81526004016105029190610d70565b602060405180830381865afa15801561051d573d5f803e3d5ffd5b505050506040513d601f19601f820116820180604052508101906105419190610fe0565b73ffffffffffffffffffffffffffffffffffffffff1614610597576040517f08c379a000000000000000000000000000000000000000000000000000000000815260040161058e90611055565b60405180910390fd5b4260015410156105dc576040517f08c379a00000000000000000000000000000000000000000000000000000000081526004016105d3906110bd565b60405180910390fd5b60015460025411610622576040517f08c379a00000000000000000000000000000000000000000000000000000000081526004016106199061114b565b60405180910390fd5b60055f9054906101000a900473ffffffffffffffffffffffffffffffffffffffff1673ffffffffffffffffffffffffffffffffffffffff166342842e0e5f8054906101000a900473ffffffffffffffffffffffffffffffffffffffff16306006546040518463ffffffff1660e01b81526004016106a193929190611189565b5f604051808303815f87803b1580156106b8575f80fd5b505af11580156106ca573d5f803e3d5ffd5b50505050600160075f6101000a81548160ff0219169083151502179055507fc8f99b9ac2a284b93c3652b9f064a6706724088cdafa9e0a8437c026191b2f0360405160405180910390a1565b600760019054906101000a900473ffffffffffffffffffffffffffffffffffffffff1681565b60015481565b60075f9054906101000a900460ff16610790576040517f08c379a000000000000000000000000000000000000000000000000000000000815260040161078790611208565b60405180910390fd5b6001544210156107d5576040517f08c379a00000000000000000000000000000000000000000000000000000000081526004016107cc90611270565b60405180910390fd5b60025442111561081a576040517f08c379a0000000000000000000000000000000000000000000000000000000008152600401610811906112d8565b60405180910390fd5b5f610823610349565b905080341015610868576040517f08c379a000000000000000000000000000000000000000000000000000000000815260040161085f90611340565b60405180910390fd5b33600760016101000a81548173ffffffffffffffffffffffffffffffffffffffff021916908373ffffffffffffffffffffffffffffffffffffffff16021790555060055f9054906101000a900473ffffffffffffffffffffffffffffffffffffffff1673ffffffffffffffffffffffffffffffffffffffff166323b872dd30600760019054906101000a900473ffffffffffffffffffffffffffffffffffffffff166006546040518463ffffffff1660e01b815260040161092b9392919061135e565b5f604051808303815f87803b158015610942575f80fd5b505af1158015610954573d5f803e3d5ffd5b505050505f8054906101000a900473ffffffffffffffffffffffffffffffffffffffff1673ffffffffffffffffffffffffffffffffffffffff166108fc3490811502906040515f60405180830381858888f193505050501580156109ba573d5f803e3d5ffd5b505f60075f6101000a81548160ff021916908315150217905550600760019054906101000a900473ffffffffffffffffffffffffffffffffffffffff1673ffffffffffffffffffffffffffffffffffffffff167f662949f3eed0ba9168ccbbab84908b33b7966e1e59c2913a90b4faac442e8e9360405160405180910390a250565b60065481565b60035481565b5f73ffffffffffffffffffffffffffffffffffffffff82169050919050565b5f610a7182610a48565b9050919050565b610a8181610a67565b82525050565b5f602082019050610a9a5f830184610a78565b92915050565b5f604051905090565b5f80fd5b5f80fd5b5f610abb82610a48565b9050919050565b610acb81610ab1565b8114610ad5575f80fd5b50565b5f81359050610ae681610ac2565b92915050565b5f819050919050565b610afe81610aec565b8114610b08575f80fd5b50565b5f81359050610b1981610af5565b92915050565b5f80fd5b5f80fd5b5f601f19601f8301169050919050565b7f4e487b71000000000000000000000000000000000000000000000000000000005f52604160045260245ffd5b610b6d82610b27565b810181811067ffffffffffffffff82111715610b8c57610b8b610b37565b5b80604052505050565b5f610b9e610aa0565b9050610baa8282610b64565b919050565b5f67ffffffffffffffff821115610bc957610bc8610b37565b5b610bd282610b27565b9050602081019050919050565b828183375f83830152505050565b5f610bff610bfa84610baf565b610b95565b905082815260208101848484011115610c1b57610c1a610b23565b5b610c26848285610bdf565b509392505050565b5f82601f830112610c4257610c41610b1f565b5b8135610c52848260208601610bed565b91505092915050565b5f805f8060808587031215610c7357610c72610aa9565b5b5f610c8087828801610ad8565b9450506020610c9187828801610ad8565b9350506040610ca287828801610b0b565b925050606085013567ffffffffffffffff811115610cc357610cc2610aad565b5b610ccf87828801610c2e565b91505092959194509250565b5f7fffffffff0000000000000000000000000000000000000000000000000000000082169050919050565b610d0f81610cdb565b82525050565b5f602082019050610d285f830184610d06565b92915050565b5f8115159050919050565b610d4281610d2e565b82525050565b5f602082019050610d5b5f830184610d39565b92915050565b610d6a81610aec565b82525050565b5f602082019050610d835f830184610d61565b92915050565b5f819050919050565b5f610dac610da7610da284610a48565b610d89565b610a48565b9050919050565b5f610dbd82610d92565b9050919050565b5f610dce82610db3565b9050919050565b610dde81610dc4565b82525050565b5f602082019050610df75f830184610dd5565b92915050565b610e0681610ab1565b82525050565b5f602082019050610e1f5f830184610dfd565b92915050565b7f4e487b71000000000000000000000000000000000000000000000000000000005f52601160045260245ffd5b5f610e5c82610aec565b9150610e6783610aec565b9250828203905081811115610e7f57610e7e610e25565b5b92915050565b5f610e8f82610aec565b9150610e9a83610aec565b9250828202610ea881610aec565b91508282048414831517610ebf57610ebe610e25565b5b5092915050565b5f82825260208201905092915050565b7f4f6e6c79207468652073656c6c65722063616e207374617274207468652061755f8201527f6374696f6e000000000000000000000000000000000000000000000000000000602082015250565b5f610f30602583610ec6565b9150610f3b82610ed6565b604082019050919050565b5f6020820190508181035f830152610f5d81610f24565b9050919050565b7f41756374696f6e20697320616c726561647920616374697665000000000000005f82015250565b5f610f98601983610ec6565b9150610fa382610f64565b602082019050919050565b5f6020820190508181035f830152610fc581610f8c565b9050919050565b5f81519050610fda81610ac2565b92915050565b5f60208284031215610ff557610ff4610aa9565b5b5f61100284828501610fcc565b91505092915050565b7f53656c6c657220646f6573206e6f74206f776e20746865204e465400000000005f82015250565b5f61103f601b83610ec6565b915061104a8261100b565b602082019050919050565b5f6020820190508181035f83015261106c81611033565b9050919050565b7f53746172742074696d65206d75737420626520696e20746865206675747572655f82015250565b5f6110a7602083610ec6565b91506110b282611073565b602082019050919050565b5f6020820190508181035f8301526110d48161109b565b9050919050565b7f456e642074696d65206d7573742062652061667465722073746172742074696d5f8201527f6500000000000000000000000000000000000000000000000000000000000000602082015250565b5f611135602183610ec6565b9150611140826110db565b604082019050919050565b5f6020820190508181035f83015261116281611129565b9050919050565b5f61117382610db3565b9050919050565b61118381611169565b82525050565b5f60608201905061119c5f83018661117a565b6111a96020830185610dfd565b6111b66040830184610d61565b949350505050565b7f41756374696f6e206973206e6f742061637469766500000000000000000000005f82015250565b5f6111f2601583610ec6565b91506111fd826111be565b602082019050919050565b5f6020820190508181035f83015261121f816111e6565b9050919050565b7f41756374696f6e20686173206e6f7420737461727465640000000000000000005f82015250565b5f61125a601783610ec6565b915061126582611226565b602082019050919050565b5f6020820190508181035f8301526112878161124e565b9050919050565b7f41756374696f6e2068617320656e6465640000000000000000000000000000005f82015250565b5f6112c2601183610ec6565b91506112cd8261128e565b602082019050919050565b5f6020820190508181035f8301526112ef816112b6565b9050919050565b7f496e73756666696369656e742066756e647300000000000000000000000000005f82015250565b5f61132a601283610ec6565b9150611335826112f6565b602082019050919050565b5f6020820190508181035f8301526113578161131e565b9050919050565b5f6060820190506113715f830186610dfd565b61137e6020830185610dfd565b61138b6040830184610d61565b94935050505056fea2646970667358221220263fd9a18e33ab8d06351080af1557b9633afd31941b64d5cec1dcf309d2762d64736f6c63430008150033",
  "immutableReferences": {},
  "source": "// SPDX-License-Identifier: MIT\r\npragma solidity ^0.8.0;\r\n\r\nimport \"@openzeppelin/contracts/token/ERC721/IERC721.sol\";\r\nimport \"@openzeppelin/contracts/token/ERC721/utils/ERC721Holder.sol\";\r\n\r\ncontract AuctionDutch is ERC721Holder {\r\n    address payable public seller;\r\n    uint public startTime;\r\n    uint public endTime;\r\n    uint public startingPrice;\r\n    uint public decrementPerSec;\r\n    IERC721 public nft;\r\n    uint public nftId;\r\n    bool public isActive;\r\n    address public buyer;\r\n\r\n    event AuctionStarted();\r\n    event AuctionEnded(address indexed buyer);\r\n\r\n    // creates a new auction, the msg.sender becomes 'seller'\r\n    constructor(\r\n        IERC721 _nft,\r\n        uint _nftId,\r\n        uint _startTime,\r\n        uint _endTime,\r\n        uint _startingPrice,\r\n        uint _decrementPerSec\r\n    ) {\r\n        nft = _nft;\r\n        nftId = _nftId;\r\n        startTime = _startTime;\r\n        endTime = _endTime;\r\n        startingPrice = _startingPrice;\r\n        decrementPerSec = _decrementPerSec;\r\n        seller = payable(msg.sender);\r\n        isActive = false;\r\n    }\r\n\r\n    // receiver to get paid and lock funds (escrow)\r\n    receive() external payable {}\r\n\r\n    // seller starts auction\r\n    function startAuction() external {\r\n        require(msg.sender == seller, \"Only the seller can start the auction\");\r\n        require(!isActive, \"Auction is already active\");\r\n        require(nft.ownerOf(nftId) == seller, \"Seller does not own the NFT\");\r\n        require(startTime >= block.timestamp, \"Start time must be in the future\");\r\n        require(endTime > startTime, \"End time must be after start time\");\r\n\r\n        nft.safeTransferFrom(seller, address(this), nftId);\r\n        isActive = true;\r\n\r\n        emit AuctionStarted();\r\n    }\r\n\r\n    // anyone can buy the NFT at the current price\r\n    function buyNFT() external payable {\r\n        require(isActive, \"Auction is not active\");\r\n        require(block.timestamp >= startTime, \"Auction has not started\");\r\n        require(block.timestamp <= endTime, \"Auction has ended\");\r\n\r\n        uint currentPrice = calculateCurrentPrice();\r\n        require(msg.value >= currentPrice, \"Insufficient funds\");\r\n\r\n        buyer = msg.sender;\r\n        nft.transferFrom(address(this), buyer, nftId);\r\n        seller.transfer(msg.value);\r\n\r\n        isActive = false;\r\n\r\n        emit AuctionEnded(buyer);\r\n    }\r\n\r\n    // calculate the current price based on time elapsed\r\n    function calculateCurrentPrice() public view returns (uint) {\r\n        uint timeElapsed = block.timestamp - startTime;\r\n        uint priceReduction = timeElapsed * decrementPerSec;\r\n        uint currentPrice = startingPrice - priceReduction;\r\n\r\n        // ensure price doesn't fall below zero\r\n        return currentPrice > 0 ? currentPrice : 0;\r\n    }\r\n}",
  "sourcePath": "C:\\Users\\Twinklierre\\Desktop\\Workbench\\SIIT\\Courses\\DES484-NFT-Auction\\contracts\\AuctionDutch.sol",
  "compiler": {
    "name": "solc",
    "version": "0.8.21+commit.d9974bed.Emscripten.clang"
  },
  "schemaVersion": "3.4.16",
  "updatedAt": "2024-12-15T14:12:20.756Z",
  "devdoc": {
    "kind": "dev",
    "methods": {
      "onERC721Received(address,address,uint256,bytes)": {
        "details": "See {IERC721Receiver-onERC721Received}. Always returns `IERC721Receiver.onERC721Received.selector`."
      }
    },
    "version": 1
  },
  "userdoc": {
    "kind": "user",
    "methods": {},
    "version": 1
  }
}