{
  "contractName": "Auction",
  "abi": [
    {
      "inputs": [
        {
          "internalType": "contract IERC721",
          "name": "_nft",
          "type": "address"
        },
        {
          "internalType": "uint256",
          "name": "_nftId",
          "type": "uint256"
        },
        {
          "internalType": "uint256",
          "name": "_endTime",
          "type": "uint256"
        }
      ],
      "stateMutability": "nonpayable",
      "type": "constructor"
    },
    {
      "anonymous": false,
      "inputs": [
        {
          "indexed": true,
          "internalType": "address",
          "name": "winner",
          "type": "address"
        },
        {
          "indexed": false,
          "internalType": "uint256",
          "name": "amount",
          "type": "uint256"
        }
      ],
      "name": "AuctionEnded",
      "type": "event"
    },
    {
      "anonymous": false,
      "inputs": [],
      "name": "AuctionStarted",
      "type": "event"
    },
    {
      "anonymous": false,
      "inputs": [
        {
          "indexed": true,
          "internalType": "address",
          "name": "bidder",
          "type": "address"
        },
        {
          "indexed": false,
          "internalType": "uint256",
          "name": "amount",
          "type": "uint256"
        }
      ],
      "name": "BidPlaced",
      "type": "event"
    },
    {
      "inputs": [],
      "name": "auctionStarted",
      "outputs": [
        {
          "internalType": "bool",
          "name": "",
          "type": "bool"
        }
      ],
      "stateMutability": "view",
      "type": "function",
      "constant": true
    },
    {
      "inputs": [],
      "name": "endTime",
      "outputs": [
        {
          "internalType": "uint256",
          "name": "",
          "type": "uint256"
        }
      ],
      "stateMutability": "view",
      "type": "function",
      "constant": true
    },
    {
      "inputs": [],
      "name": "highestBid",
      "outputs": [
        {
          "internalType": "uint256",
          "name": "",
          "type": "uint256"
        }
      ],
      "stateMutability": "view",
      "type": "function",
      "constant": true
    },
    {
      "inputs": [],
      "name": "highestBidder",
      "outputs": [
        {
          "internalType": "address",
          "name": "",
          "type": "address"
        }
      ],
      "stateMutability": "view",
      "type": "function",
      "constant": true
    },
    {
      "inputs": [],
      "name": "nft",
      "outputs": [
        {
          "internalType": "contract IERC721",
          "name": "",
          "type": "address"
        }
      ],
      "stateMutability": "view",
      "type": "function",
      "constant": true
    },
    {
      "inputs": [],
      "name": "nftId",
      "outputs": [
        {
          "internalType": "uint256",
          "name": "",
          "type": "uint256"
        }
      ],
      "stateMutability": "view",
      "type": "function",
      "constant": true
    },
    {
      "inputs": [
        {
          "internalType": "address",
          "name": "",
          "type": "address"
        },
        {
          "internalType": "address",
          "name": "",
          "type": "address"
        },
        {
          "internalType": "uint256",
          "name": "",
          "type": "uint256"
        },
        {
          "internalType": "bytes",
          "name": "",
          "type": "bytes"
        }
      ],
      "name": "onERC721Received",
      "outputs": [
        {
          "internalType": "bytes4",
          "name": "",
          "type": "bytes4"
        }
      ],
      "stateMutability": "nonpayable",
      "type": "function"
    },
    {
      "inputs": [],
      "name": "seller",
      "outputs": [
        {
          "internalType": "address payable",
          "name": "",
          "type": "address"
        }
      ],
      "stateMutability": "view",
      "type": "function",
      "constant": true
    },
    {
      "stateMutability": "payable",
      "type": "receive",
      "payable": true
    },
    {
      "inputs": [],
      "name": "startAuction",
      "outputs": [],
      "stateMutability": "nonpayable",
      "type": "function"
    },
    {
      "inputs": [],
      "name": "placeBid",
      "outputs": [],
      "stateMutability": "payable",
      "type": "function",
      "payable": true
    },
    {
      "inputs": [],
      "name": "EndAuction",
      "outputs": [],
      "stateMutability": "nonpayable",
      "type": "function"
    }
  ],
  "bytecode": "0x608060405234801562000010575f80fd5b506040516200156638038062001566833981810160405281019062000036919062000195565b8260045f6101000a81548173ffffffffffffffffffffffffffffffffffffffff021916908373ffffffffffffffffffffffffffffffffffffffff1602179055508160058190555080600181905550335f806101000a81548173ffffffffffffffffffffffffffffffffffffffff021916908373ffffffffffffffffffffffffffffffffffffffff1602179055505f60065f6101000a81548160ff021916908315150217905550505050620001ee565b5f80fd5b5f73ffffffffffffffffffffffffffffffffffffffff82169050919050565b5f6200011482620000e9565b9050919050565b5f620001278262000108565b9050919050565b62000139816200011b565b811462000144575f80fd5b50565b5f8151905062000157816200012e565b92915050565b5f819050919050565b62000171816200015d565b81146200017c575f80fd5b50565b5f815190506200018f8162000166565b92915050565b5f805f60608486031215620001af57620001ae620000e5565b5b5f620001be8682870162000147565b9350506020620001d1868287016200017f565b9250506040620001e4868287016200017f565b9150509250925092565b61136a80620001fc5f395ff3fe60806040526004361061009f575f3560e01c80636b64c769116100635780636b64c7691461017a57806391f9015714610190578063c6bc5182146101ba578063d57bde79146101e4578063ecfc7ecc1461020e578063ee2679bc14610218576100a6565b806308551a53146100aa578063150b7a02146100d45780633197cbb61461011057806347ccca021461013a5780636a7798ee14610164576100a6565b366100a657005b5f80fd5b3480156100b5575f80fd5b506100be610242565b6040516100cb9190610b64565b60405180910390f35b3480156100df575f80fd5b506100fa60048036038101906100f59190610d38565b610265565b6040516101079190610df2565b60405180910390f35b34801561011b575f80fd5b50610124610278565b6040516101319190610e1a565b60405180910390f35b348015610145575f80fd5b5061014e61027e565b60405161015b9190610e8e565b60405180910390f35b34801561016f575f80fd5b506101786102a3565b005b348015610185575f80fd5b5061018e6105c2565b005b34801561019b575f80fd5b506101a46108b9565b6040516101b19190610eb6565b60405180910390f35b3480156101c5575f80fd5b506101ce6108de565b6040516101db9190610e1a565b60405180910390f35b3480156101ef575f80fd5b506101f86108e4565b6040516102059190610e1a565b60405180910390f35b6102166108ea565b005b348015610223575f80fd5b5061022c610b13565b6040516102399190610ee9565b60405180910390f35b5f8054906101000a900473ffffffffffffffffffffffffffffffffffffffff1681565b5f63150b7a0260e01b9050949350505050565b60015481565b60045f9054906101000a900473ffffffffffffffffffffffffffffffffffffffff1681565b60065f9054906101000a900460ff166102f1576040517f08c379a00000000000000000000000000000000000000000000000000000000081526004016102e890610f5c565b60405180910390fd5b600154421015610336576040517f08c379a000000000000000000000000000000000000000000000000000000000815260040161032d90610fc4565b60405180910390fd5b5f73ffffffffffffffffffffffffffffffffffffffff1660025f9054906101000a900473ffffffffffffffffffffffffffffffffffffffff1673ffffffffffffffffffffffffffffffffffffffff16146104a25760045f9054906101000a900473ffffffffffffffffffffffffffffffffffffffff1673ffffffffffffffffffffffffffffffffffffffff166323b872dd3060025f9054906101000a900473ffffffffffffffffffffffffffffffffffffffff166005546040518463ffffffff1660e01b815260040161040b93929190610fe2565b5f604051808303815f87803b158015610422575f80fd5b505af1158015610434573d5f803e3d5ffd5b505050505f8054906101000a900473ffffffffffffffffffffffffffffffffffffffff1673ffffffffffffffffffffffffffffffffffffffff166108fc60035490811502906040515f60405180830381858888f1935050505015801561049c573d5f803e3d5ffd5b5061054f565b60045f9054906101000a900473ffffffffffffffffffffffffffffffffffffffff1673ffffffffffffffffffffffffffffffffffffffff166323b872dd305f8054906101000a900473ffffffffffffffffffffffffffffffffffffffff166005546040518463ffffffff1660e01b815260040161052193929190611037565b5f604051808303815f87803b158015610538575f80fd5b505af115801561054a573d5f803e3d5ffd5b505050505b60025f9054906101000a900473ffffffffffffffffffffffffffffffffffffffff1673ffffffffffffffffffffffffffffffffffffffff167fdaec4582d5d9595688c8c98545fdd1c696d41c6aeaeb636737e84ed2f5c00eda6003546040516105b89190610e1a565b60405180910390a2565b5f8054906101000a900473ffffffffffffffffffffffffffffffffffffffff1673ffffffffffffffffffffffffffffffffffffffff163373ffffffffffffffffffffffffffffffffffffffff161461064f576040517f08c379a0000000000000000000000000000000000000000000000000000000008152600401610646906110dc565b60405180910390fd5b60065f9054906101000a900460ff161561069e576040517f08c379a000000000000000000000000000000000000000000000000000000000815260040161069590611144565b60405180910390fd5b5f8054906101000a900473ffffffffffffffffffffffffffffffffffffffff1673ffffffffffffffffffffffffffffffffffffffff1660045f9054906101000a900473ffffffffffffffffffffffffffffffffffffffff1673ffffffffffffffffffffffffffffffffffffffff16636352211e6005546040518263ffffffff1660e01b81526004016107309190610e1a565b602060405180830381865afa15801561074b573d5f803e3d5ffd5b505050506040513d601f19601f8201168201806040525081019061076f9190611176565b73ffffffffffffffffffffffffffffffffffffffff16146107c5576040517f08c379a00000000000000000000000000000000000000000000000000000000081526004016107bc906111eb565b60405180910390fd5b60045f9054906101000a900473ffffffffffffffffffffffffffffffffffffffff1673ffffffffffffffffffffffffffffffffffffffff166342842e0e5f8054906101000a900473ffffffffffffffffffffffffffffffffffffffff16306005546040518463ffffffff1660e01b815260040161084493929190611209565b5f604051808303815f87803b15801561085b575f80fd5b505af115801561086d573d5f803e3d5ffd5b50505050600160065f6101000a81548160ff0219169083151502179055507fc8f99b9ac2a284b93c3652b9f064a6706724088cdafa9e0a8437c026191b2f0360405160405180910390a1565b60025f9054906101000a900473ffffffffffffffffffffffffffffffffffffffff1681565b60055481565b60035481565b60065f9054906101000a900460ff16610938576040517f08c379a000000000000000000000000000000000000000000000000000000000815260040161092f90610f5c565b60405180910390fd5b600154421061097c576040517f08c379a000000000000000000000000000000000000000000000000000000000815260040161097390611288565b60405180910390fd5b60035434116109c0576040517f08c379a00000000000000000000000000000000000000000000000000000000081526004016109b790611316565b60405180910390fd5b5f73ffffffffffffffffffffffffffffffffffffffff1660025f9054906101000a900473ffffffffffffffffffffffffffffffffffffffff1673ffffffffffffffffffffffffffffffffffffffff1614610a7c5760025f9054906101000a900473ffffffffffffffffffffffffffffffffffffffff1673ffffffffffffffffffffffffffffffffffffffff166108fc60035490811502906040515f60405180830381858888f19350505050158015610a7a573d5f803e3d5ffd5b505b3360025f6101000a81548173ffffffffffffffffffffffffffffffffffffffff021916908373ffffffffffffffffffffffffffffffffffffffff160217905550346003819055503373ffffffffffffffffffffffffffffffffffffffff167f3fabff0a9c3ecd6814702e247fa9733e5d0aa69e3a38590f92cb18f623a2254d34604051610b099190610e1a565b60405180910390a2565b60065f9054906101000a900460ff1681565b5f73ffffffffffffffffffffffffffffffffffffffff82169050919050565b5f610b4e82610b25565b9050919050565b610b5e81610b44565b82525050565b5f602082019050610b775f830184610b55565b92915050565b5f604051905090565b5f80fd5b5f80fd5b5f610b9882610b25565b9050919050565b610ba881610b8e565b8114610bb2575f80fd5b50565b5f81359050610bc381610b9f565b92915050565b5f819050919050565b610bdb81610bc9565b8114610be5575f80fd5b50565b5f81359050610bf681610bd2565b92915050565b5f80fd5b5f80fd5b5f601f19601f8301169050919050565b7f4e487b71000000000000000000000000000000000000000000000000000000005f52604160045260245ffd5b610c4a82610c04565b810181811067ffffffffffffffff82111715610c6957610c68610c14565b5b80604052505050565b5f610c7b610b7d565b9050610c878282610c41565b919050565b5f67ffffffffffffffff821115610ca657610ca5610c14565b5b610caf82610c04565b9050602081019050919050565b828183375f83830152505050565b5f610cdc610cd784610c8c565b610c72565b905082815260208101848484011115610cf857610cf7610c00565b5b610d03848285610cbc565b509392505050565b5f82601f830112610d1f57610d1e610bfc565b5b8135610d2f848260208601610cca565b91505092915050565b5f805f8060808587031215610d5057610d4f610b86565b5b5f610d5d87828801610bb5565b9450506020610d6e87828801610bb5565b9350506040610d7f87828801610be8565b925050606085013567ffffffffffffffff811115610da057610d9f610b8a565b5b610dac87828801610d0b565b91505092959194509250565b5f7fffffffff0000000000000000000000000000000000000000000000000000000082169050919050565b610dec81610db8565b82525050565b5f602082019050610e055f830184610de3565b92915050565b610e1481610bc9565b82525050565b5f602082019050610e2d5f830184610e0b565b92915050565b5f819050919050565b5f610e56610e51610e4c84610b25565b610e33565b610b25565b9050919050565b5f610e6782610e3c565b9050919050565b5f610e7882610e5d565b9050919050565b610e8881610e6e565b82525050565b5f602082019050610ea15f830184610e7f565b92915050565b610eb081610b8e565b82525050565b5f602082019050610ec95f830184610ea7565b92915050565b5f8115159050919050565b610ee381610ecf565b82525050565b5f602082019050610efc5f830184610eda565b92915050565b5f82825260208201905092915050565b7f41756374696f6e20686173206e6f7420737461727465640000000000000000005f82015250565b5f610f46601783610f02565b9150610f5182610f12565b602082019050919050565b5f6020820190508181035f830152610f7381610f3a565b9050919050565b7f41756374696f6e20686173206e6f7420656e64656420796574000000000000005f82015250565b5f610fae601983610f02565b9150610fb982610f7a565b602082019050919050565b5f6020820190508181035f830152610fdb81610fa2565b9050919050565b5f606082019050610ff55f830186610ea7565b6110026020830185610ea7565b61100f6040830184610e0b565b949350505050565b5f61102182610e5d565b9050919050565b61103181611017565b82525050565b5f60608201905061104a5f830186610ea7565b6110576020830185611028565b6110646040830184610e0b565b949350505050565b7f4f6e6c79207468652073656c6c65722063616e207374617274207468652061755f8201527f6374696f6e000000000000000000000000000000000000000000000000000000602082015250565b5f6110c6602583610f02565b91506110d18261106c565b604082019050919050565b5f6020820190508181035f8301526110f3816110ba565b9050919050565b7f41756374696f6e2068617320616c7265616479207374617274656400000000005f82015250565b5f61112e601b83610f02565b9150611139826110fa565b602082019050919050565b5f6020820190508181035f83015261115b81611122565b9050919050565b5f8151905061117081610b9f565b92915050565b5f6020828403121561118b5761118a610b86565b5b5f61119884828501611162565b91505092915050565b7f53656c6c657220646f6573206e6f74206f776e20746865204e465400000000005f82015250565b5f6111d5601b83610f02565b91506111e0826111a1565b602082019050919050565b5f6020820190508181035f830152611202816111c9565b9050919050565b5f60608201905061121c5f830186611028565b6112296020830185610ea7565b6112366040830184610e0b565b949350505050565b7f41756374696f6e2068617320656e6465640000000000000000000000000000005f82015250565b5f611272601183610f02565b915061127d8261123e565b602082019050919050565b5f6020820190508181035f83015261129f81611266565b9050919050565b7f426964206d75737420626520686967686572207468616e2074686520637572725f8201527f656e742068696768657374206269640000000000000000000000000000000000602082015250565b5f611300602f83610f02565b915061130b826112a6565b604082019050919050565b5f6020820190508181035f83015261132d816112f4565b905091905056fea2646970667358221220d3c68f9144433b99a137388ab68702086a8c74ec87b5a4cafaab5d365d75f38f64736f6c63430008150033",
  "immutableReferences": {},
  "source": "// SPDX-License-Identifier: MIT\r\npragma solidity ^0.8.0;\r\n\r\nimport \"@openzeppelin/contracts/token/ERC721/IERC721.sol\";\r\nimport \"@openzeppelin/contracts/token/ERC721/utils/ERC721Holder.sol\";\r\n\r\ncontract Auction is ERC721Holder {\r\n    address payable public seller;\r\n    uint public endTime;\r\n    address public highestBidder;\r\n    uint public highestBid;\r\n    IERC721 public nft;\r\n    uint public nftId;\r\n    bool public auctionStarted;\r\n\r\n    event AuctionStarted();\r\n    event BidPlaced(address indexed bidder, uint amount);\r\n    event AuctionEnded(address indexed winner, uint amount);\r\n\r\n    constructor(IERC721 _nft, uint _nftId, uint _endTime) {\r\n        nft = _nft;\r\n        nftId = _nftId;\r\n        endTime = _endTime;\r\n        seller = payable(msg.sender);\r\n        auctionStarted = false;\r\n    }\r\n\r\n    receive() external payable {}\r\n\r\n    function startAuction() external {\r\n        require(msg.sender == seller, \"Only the seller can start the auction\");\r\n        require(!auctionStarted, \"Auction has already started\");\r\n        require(nft.ownerOf(nftId) == seller, \"Seller does not own the NFT\");\r\n\r\n        nft.safeTransferFrom(seller, address(this), nftId);\r\n        auctionStarted = true;\r\n\r\n        emit AuctionStarted();\r\n    }\r\n\r\n    function placeBid() external payable {\r\n        require(auctionStarted, \"Auction has not started\");\r\n        require(block.timestamp < endTime, \"Auction has ended\");\r\n        require(msg.value > highestBid, \"Bid must be higher than the current highest bid\");\r\n\r\n        if (highestBidder != address(0)) {\r\n            payable(highestBidder).transfer(highestBid);\r\n        }\r\n\r\n        highestBidder = msg.sender;\r\n        highestBid = msg.value;\r\n\r\n        emit BidPlaced(msg.sender, msg.value);\r\n    }\r\n\r\n    function EndAuction() external {\r\n        require(auctionStarted, \"Auction has not started\");\r\n        require(block.timestamp >= endTime, \"Auction has not ended yet\");\r\n\r\n        if (highestBidder != address(0)) {\r\n            nft.transferFrom(address(this), highestBidder, nftId);\r\n            seller.transfer(highestBid);\r\n        } else {\r\n            nft.transferFrom(address(this), seller, nftId);\r\n        }\r\n\r\n        emit AuctionEnded(highestBidder, highestBid);\r\n    }\r\n}\r\n",
  "sourcePath": "C:\\Picnic\\DES484-NFT-Auction\\contracts\\Auction.sol",
  "compiler": {
    "name": "solc",
    "version": "0.8.21+commit.d9974bed.Emscripten.clang"
  },
  "schemaVersion": "3.4.16",
  "updatedAt": "2024-12-14T16:04:42.927Z",
  "networkType": "ethereum",
  "devdoc": {
    "kind": "dev",
    "methods": {
      "onERC721Received(address,address,uint256,bytes)": {
        "details": "See {IERC721Receiver-onERC721Received}. Always returns `IERC721Receiver.onERC721Received.selector`."
      }
    },
    "version": 1
  },
  "userdoc": {
    "kind": "user",
    "methods": {},
    "version": 1
  }
}