{
  "contractName": "NFT",
  "abi": [
    {
      "inputs": [],
      "stateMutability": "nonpayable",
      "type": "constructor"
    },
    {
      "inputs": [
        {
          "internalType": "address",
          "name": "sender",
          "type": "address"
        },
        {
          "internalType": "uint256",
          "name": "tokenId",
          "type": "uint256"
        },
        {
          "internalType": "address",
          "name": "owner",
          "type": "address"
        }
      ],
      "name": "ERC721IncorrectOwner",
      "type": "error"
    },
    {
      "inputs": [
        {
          "internalType": "address",
          "name": "operator",
          "type": "address"
        },
        {
          "internalType": "uint256",
          "name": "tokenId",
          "type": "uint256"
        }
      ],
      "name": "ERC721InsufficientApproval",
      "type": "error"
    },
    {
      "inputs": [
        {
          "internalType": "address",
          "name": "approver",
          "type": "address"
        }
      ],
      "name": "ERC721InvalidApprover",
      "type": "error"
    },
    {
      "inputs": [
        {
          "internalType": "address",
          "name": "operator",
          "type": "address"
        }
      ],
      "name": "ERC721InvalidOperator",
      "type": "error"
    },
    {
      "inputs": [
        {
          "internalType": "address",
          "name": "owner",
          "type": "address"
        }
      ],
      "name": "ERC721InvalidOwner",
      "type": "error"
    },
    {
      "inputs": [
        {
          "internalType": "address",
          "name": "receiver",
          "type": "address"
        }
      ],
      "name": "ERC721InvalidReceiver",
      "type": "error"
    },
    {
      "inputs": [
        {
          "internalType": "address",
          "name": "sender",
          "type": "address"
        }
      ],
      "name": "ERC721InvalidSender",
      "type": "error"
    },
    {
      "inputs": [
        {
          "internalType": "uint256",
          "name": "tokenId",
          "type": "uint256"
        }
      ],
      "name": "ERC721NonexistentToken",
      "type": "error"
    },
    {
      "anonymous": false,
      "inputs": [
        {
          "indexed": true,
          "internalType": "address",
          "name": "owner",
          "type": "address"
        },
        {
          "indexed": true,
          "internalType": "address",
          "name": "approved",
          "type": "address"
        },
        {
          "indexed": true,
          "internalType": "uint256",
          "name": "tokenId",
          "type": "uint256"
        }
      ],
      "name": "Approval",
      "type": "event"
    },
    {
      "anonymous": false,
      "inputs": [
        {
          "indexed": true,
          "internalType": "address",
          "name": "owner",
          "type": "address"
        },
        {
          "indexed": true,
          "internalType": "address",
          "name": "operator",
          "type": "address"
        },
        {
          "indexed": false,
          "internalType": "bool",
          "name": "approved",
          "type": "bool"
        }
      ],
      "name": "ApprovalForAll",
      "type": "event"
    },
    {
      "anonymous": false,
      "inputs": [
        {
          "indexed": true,
          "internalType": "address",
          "name": "from",
          "type": "address"
        },
        {
          "indexed": true,
          "internalType": "address",
          "name": "to",
          "type": "address"
        },
        {
          "indexed": true,
          "internalType": "uint256",
          "name": "tokenId",
          "type": "uint256"
        }
      ],
      "name": "Transfer",
      "type": "event"
    },
    {
      "inputs": [
        {
          "internalType": "address",
          "name": "to",
          "type": "address"
        },
        {
          "internalType": "uint256",
          "name": "tokenId",
          "type": "uint256"
        }
      ],
      "name": "approve",
      "outputs": [],
      "stateMutability": "nonpayable",
      "type": "function"
    },
    {
      "inputs": [
        {
          "internalType": "address",
          "name": "owner",
          "type": "address"
        }
      ],
      "name": "balanceOf",
      "outputs": [
        {
          "internalType": "uint256",
          "name": "",
          "type": "uint256"
        }
      ],
      "stateMutability": "view",
      "type": "function",
      "constant": true
    },
    {
      "inputs": [
        {
          "internalType": "uint256",
          "name": "tokenId",
          "type": "uint256"
        }
      ],
      "name": "getApproved",
      "outputs": [
        {
          "internalType": "address",
          "name": "",
          "type": "address"
        }
      ],
      "stateMutability": "view",
      "type": "function",
      "constant": true
    },
    {
      "inputs": [
        {
          "internalType": "address",
          "name": "owner",
          "type": "address"
        },
        {
          "internalType": "address",
          "name": "operator",
          "type": "address"
        }
      ],
      "name": "isApprovedForAll",
      "outputs": [
        {
          "internalType": "bool",
          "name": "",
          "type": "bool"
        }
      ],
      "stateMutability": "view",
      "type": "function",
      "constant": true
    },
    {
      "inputs": [],
      "name": "name",
      "outputs": [
        {
          "internalType": "string",
          "name": "",
          "type": "string"
        }
      ],
      "stateMutability": "view",
      "type": "function",
      "constant": true
    },
    {
      "inputs": [
        {
          "internalType": "uint256",
          "name": "tokenId",
          "type": "uint256"
        }
      ],
      "name": "ownerOf",
      "outputs": [
        {
          "internalType": "address",
          "name": "",
          "type": "address"
        }
      ],
      "stateMutability": "view",
      "type": "function",
      "constant": true
    },
    {
      "inputs": [
        {
          "internalType": "address",
          "name": "from",
          "type": "address"
        },
        {
          "internalType": "address",
          "name": "to",
          "type": "address"
        },
        {
          "internalType": "uint256",
          "name": "tokenId",
          "type": "uint256"
        }
      ],
      "name": "safeTransferFrom",
      "outputs": [],
      "stateMutability": "nonpayable",
      "type": "function"
    },
    {
      "inputs": [
        {
          "internalType": "address",
          "name": "from",
          "type": "address"
        },
        {
          "internalType": "address",
          "name": "to",
          "type": "address"
        },
        {
          "internalType": "uint256",
          "name": "tokenId",
          "type": "uint256"
        },
        {
          "internalType": "bytes",
          "name": "data",
          "type": "bytes"
        }
      ],
      "name": "safeTransferFrom",
      "outputs": [],
      "stateMutability": "nonpayable",
      "type": "function"
    },
    {
      "inputs": [
        {
          "internalType": "address",
          "name": "operator",
          "type": "address"
        },
        {
          "internalType": "bool",
          "name": "approved",
          "type": "bool"
        }
      ],
      "name": "setApprovalForAll",
      "outputs": [],
      "stateMutability": "nonpayable",
      "type": "function"
    },
    {
      "inputs": [
        {
          "internalType": "bytes4",
          "name": "interfaceId",
          "type": "bytes4"
        }
      ],
      "name": "supportsInterface",
      "outputs": [
        {
          "internalType": "bool",
          "name": "",
          "type": "bool"
        }
      ],
      "stateMutability": "view",
      "type": "function",
      "constant": true
    },
    {
      "inputs": [],
      "name": "symbol",
      "outputs": [
        {
          "internalType": "string",
          "name": "",
          "type": "string"
        }
      ],
      "stateMutability": "view",
      "type": "function",
      "constant": true
    },
    {
      "inputs": [],
      "name": "tokenCounter",
      "outputs": [
        {
          "internalType": "uint256",
          "name": "",
          "type": "uint256"
        }
      ],
      "stateMutability": "view",
      "type": "function",
      "constant": true
    },
    {
      "inputs": [
        {
          "internalType": "uint256",
          "name": "tokenId",
          "type": "uint256"
        }
      ],
      "name": "tokenURI",
      "outputs": [
        {
          "internalType": "string",
          "name": "",
          "type": "string"
        }
      ],
      "stateMutability": "view",
      "type": "function",
      "constant": true
    },
    {
      "inputs": [
        {
          "internalType": "address",
          "name": "from",
          "type": "address"
        },
        {
          "internalType": "address",
          "name": "to",
          "type": "address"
        },
        {
          "internalType": "uint256",
          "name": "tokenId",
          "type": "uint256"
        }
      ],
      "name": "transferFrom",
      "outputs": [],
      "stateMutability": "nonpayable",
      "type": "function"
    },
    {
      "inputs": [
        {
          "internalType": "address",
          "name": "recipient",
          "type": "address"
        }
      ],
      "name": "mintNFT",
      "outputs": [
        {
          "internalType": "uint256",
          "name": "",
          "type": "uint256"
        }
      ],
      "stateMutability": "nonpayable",
      "type": "function"
    }
  ],
  "bytecode": "0x60806040525f60065534801562000014575f80fd5b506040518060400160405280600e81526020017f4e46544d61726b6574706c6163650000000000000000000000000000000000008152506040518060400160405280600481526020017f4e46544d00000000000000000000000000000000000000000000000000000000815250815f908162000091919062000317565b508060019081620000a3919062000317565b5050505f600681905550620003fb565b5f81519050919050565b7f4e487b71000000000000000000000000000000000000000000000000000000005f52604160045260245ffd5b7f4e487b71000000000000000000000000000000000000000000000000000000005f52602260045260245ffd5b5f60028204905060018216806200012f57607f821691505b602082108103620001455762000144620000ea565b5b50919050565b5f819050815f5260205f209050919050565b5f6020601f8301049050919050565b5f82821b905092915050565b5f60088302620001a97fffffffffffffffffffffffffffffffffffffffffffffffffffffffffffffffff826200016c565b620001b586836200016c565b95508019841693508086168417925050509392505050565b5f819050919050565b5f819050919050565b5f620001ff620001f9620001f384620001cd565b620001d6565b620001cd565b9050919050565b5f819050919050565b6200021a83620001df565b62000232620002298262000206565b84845462000178565b825550505050565b5f90565b620002486200023a565b620002558184846200020f565b505050565b5b818110156200027c57620002705f826200023e565b6001810190506200025b565b5050565b601f821115620002cb5762000295816200014b565b620002a0846200015d565b81016020851015620002b0578190505b620002c8620002bf856200015d565b8301826200025a565b50505b505050565b5f82821c905092915050565b5f620002ed5f1984600802620002d0565b1980831691505092915050565b5f620003078383620002dc565b9150826002028217905092915050565b6200032282620000b3565b67ffffffffffffffff8111156200033e576200033d620000bd565b5b6200034a825462000117565b6200035782828562000280565b5f60209050601f8311600181146200038d575f841562000378578287015190505b620003848582620002fa565b865550620003f3565b601f1984166200039d866200014b565b5f5b82811015620003c6578489015182556001820191506020850194506020810190506200039f565b86831015620003e65784890151620003e2601f891682620002dc565b8355505b6001600288020188555050505b505050505050565b611f2e80620004095f395ff3fe608060405234801561000f575f80fd5b50600436106100f3575f3560e01c80636352211e11610095578063b88d4fde11610064578063b88d4fde14610293578063c87b56dd146102af578063d082e381146102df578063e985e9c5146102fd576100f3565b80636352211e146101f957806370a082311461022957806395d89b4114610259578063a22cb46514610277576100f3565b8063095ea7b3116100d1578063095ea7b31461017557806323b872dd1461019157806342842e0e146101ad57806354ba0f27146101c9576100f3565b806301ffc9a7146100f757806306fdde0314610127578063081812fc14610145575b5f80fd5b610111600480360381019061010c91906116bd565b61032d565b60405161011e9190611702565b60405180910390f35b61012f61040e565b60405161013c91906117a5565b60405180910390f35b61015f600480360381019061015a91906117f8565b61049d565b60405161016c9190611862565b60405180910390f35b61018f600480360381019061018a91906118a5565b6104b8565b005b6101ab60048036038101906101a691906118e3565b6104ce565b005b6101c760048036038101906101c291906118e3565b6105cd565b005b6101e360048036038101906101de9190611933565b6105ec565b6040516101f0919061196d565b60405180910390f35b610213600480360381019061020e91906117f8565b61068b565b6040516102209190611862565b60405180910390f35b610243600480360381019061023e9190611933565b61069c565b604051610250919061196d565b60405180910390f35b610261610752565b60405161026e91906117a5565b60405180910390f35b610291600480360381019061028c91906119b0565b6107e2565b005b6102ad60048036038101906102a89190611b1a565b6107f8565b005b6102c960048036038101906102c491906117f8565b61081d565b6040516102d691906117a5565b60405180910390f35b6102e7610883565b6040516102f4919061196d565b60405180910390f35b61031760048036038101906103129190611b9a565b610889565b6040516103249190611702565b60405180910390f35b5f7f80ac58cd000000000000000000000000000000000000000000000000000000007bffffffffffffffffffffffffffffffffffffffffffffffffffffffff1916827bffffffffffffffffffffffffffffffffffffffffffffffffffffffff191614806103f757507f5b5e139f000000000000000000000000000000000000000000000000000000007bffffffffffffffffffffffffffffffffffffffffffffffffffffffff1916827bffffffffffffffffffffffffffffffffffffffffffffffffffffffff1916145b80610407575061040682610917565b5b9050919050565b60605f805461041c90611c05565b80601f016020809104026020016040519081016040528092919081815260200182805461044890611c05565b80156104935780601f1061046a57610100808354040283529160200191610493565b820191905f5260205f20905b81548152906001019060200180831161047657829003601f168201915b5050505050905090565b5f6104a782610980565b506104b182610a06565b9050919050565b6104ca82826104c5610a3f565b610a46565b5050565b5f73ffffffffffffffffffffffffffffffffffffffff168273ffffffffffffffffffffffffffffffffffffffff160361053e575f6040517f64a0ae920000000000000000000000000000000000000000000000000000000081526004016105359190611862565b60405180910390fd5b5f610551838361054c610a3f565b610a58565b90508373ffffffffffffffffffffffffffffffffffffffff168173ffffffffffffffffffffffffffffffffffffffff16146105c7578382826040517f64283d7b0000000000000000000000000000000000000000000000000000000081526004016105be93929190611c35565b60405180910390fd5b50505050565b6105e783838360405180602001604052805f8152506107f8565b505050565b5f8073ffffffffffffffffffffffffffffffffffffffff168273ffffffffffffffffffffffffffffffffffffffff160361065b576040517f08c379a000000000000000000000000000000000000000000000000000000000815260040161065290611cda565b60405180910390fd5b5f600654905061066b8382610c63565b60065f81548092919061067d90611d25565b919050555080915050919050565b5f61069582610980565b9050919050565b5f8073ffffffffffffffffffffffffffffffffffffffff168273ffffffffffffffffffffffffffffffffffffffff160361070d575f6040517f89c62b640000000000000000000000000000000000000000000000000000000081526004016107049190611862565b60405180910390fd5b60035f8373ffffffffffffffffffffffffffffffffffffffff1673ffffffffffffffffffffffffffffffffffffffff1681526020019081526020015f20549050919050565b60606001805461076190611c05565b80601f016020809104026020016040519081016040528092919081815260200182805461078d90611c05565b80156107d85780601f106107af576101008083540402835291602001916107d8565b820191905f5260205f20905b8154815290600101906020018083116107bb57829003601f168201915b5050505050905090565b6107f46107ed610a3f565b8383610c80565b5050565b6108038484846104ce565b61081761080e610a3f565b85858585610de9565b50505050565b606061082882610980565b505f610832610f95565b90505f8151116108505760405180602001604052805f81525061087b565b8061085a84610fab565b60405160200161086b929190611da6565b6040516020818303038152906040525b915050919050565b60065481565b5f60055f8473ffffffffffffffffffffffffffffffffffffffff1673ffffffffffffffffffffffffffffffffffffffff1681526020019081526020015f205f8373ffffffffffffffffffffffffffffffffffffffff1673ffffffffffffffffffffffffffffffffffffffff1681526020019081526020015f205f9054906101000a900460ff16905092915050565b5f7f01ffc9a7000000000000000000000000000000000000000000000000000000007bffffffffffffffffffffffffffffffffffffffffffffffffffffffff1916827bffffffffffffffffffffffffffffffffffffffffffffffffffffffff1916149050919050565b5f8061098b83611075565b90505f73ffffffffffffffffffffffffffffffffffffffff168173ffffffffffffffffffffffffffffffffffffffff16036109fd57826040517f7e2732890000000000000000000000000000000000000000000000000000000081526004016109f4919061196d565b60405180910390fd5b80915050919050565b5f60045f8381526020019081526020015f205f9054906101000a900473ffffffffffffffffffffffffffffffffffffffff169050919050565b5f33905090565b610a5383838360016110ae565b505050565b5f80610a6384611075565b90505f73ffffffffffffffffffffffffffffffffffffffff168373ffffffffffffffffffffffffffffffffffffffff1614610aa457610aa381848661126d565b5b5f73ffffffffffffffffffffffffffffffffffffffff168173ffffffffffffffffffffffffffffffffffffffff1614610b2f57610ae35f855f806110ae565b600160035f8373ffffffffffffffffffffffffffffffffffffffff1673ffffffffffffffffffffffffffffffffffffffff1681526020019081526020015f205f82825403925050819055505b5f73ffffffffffffffffffffffffffffffffffffffff168573ffffffffffffffffffffffffffffffffffffffff1614610bae57600160035f8773ffffffffffffffffffffffffffffffffffffffff1673ffffffffffffffffffffffffffffffffffffffff1681526020019081526020015f205f82825401925050819055505b8460025f8681526020019081526020015f205f6101000a81548173ffffffffffffffffffffffffffffffffffffffff021916908373ffffffffffffffffffffffffffffffffffffffff160217905550838573ffffffffffffffffffffffffffffffffffffffff168273ffffffffffffffffffffffffffffffffffffffff167fddf252ad1be2c89b69c2b068fc378daa952ba7f163c4a11628f55a4df523b3ef60405160405180910390a4809150509392505050565b610c7c828260405180602001604052805f815250611330565b5050565b5f73ffffffffffffffffffffffffffffffffffffffff168273ffffffffffffffffffffffffffffffffffffffff1603610cf057816040517f5b08ba18000000000000000000000000000000000000000000000000000000008152600401610ce79190611862565b60405180910390fd5b8060055f8573ffffffffffffffffffffffffffffffffffffffff1673ffffffffffffffffffffffffffffffffffffffff1681526020019081526020015f205f8473ffffffffffffffffffffffffffffffffffffffff1673ffffffffffffffffffffffffffffffffffffffff1681526020019081526020015f205f6101000a81548160ff0219169083151502179055508173ffffffffffffffffffffffffffffffffffffffff168373ffffffffffffffffffffffffffffffffffffffff167f17307eab39ab6107e8899845ad3d59bd9653f200f220920489ca2b5937696c3183604051610ddc9190611702565b60405180910390a3505050565b5f8373ffffffffffffffffffffffffffffffffffffffff163b1115610f8e578273ffffffffffffffffffffffffffffffffffffffff1663150b7a02868685856040518563ffffffff1660e01b8152600401610e479493929190611e1b565b6020604051808303815f875af1925050508015610e8257506040513d601f19601f82011682018060405250810190610e7f9190611e79565b60015b610f03573d805f8114610eb0576040519150601f19603f3d011682016040523d82523d5f602084013e610eb5565b606091505b505f815103610efb57836040517f64a0ae92000000000000000000000000000000000000000000000000000000008152600401610ef29190611862565b60405180910390fd5b805181602001fd5b63150b7a0260e01b7bffffffffffffffffffffffffffffffffffffffffffffffffffffffff1916817bffffffffffffffffffffffffffffffffffffffffffffffffffffffff191614610f8c57836040517f64a0ae92000000000000000000000000000000000000000000000000000000008152600401610f839190611862565b60405180910390fd5b505b5050505050565b606060405180602001604052805f815250905090565b60605f6001610fb984611353565b0190505f8167ffffffffffffffff811115610fd757610fd66119f6565b5b6040519080825280601f01601f1916602001820160405280156110095781602001600182028036833780820191505090505b5090505f82602001820190505b60011561106a578080600190039150507f3031323334353637383961626364656600000000000000000000000000000000600a86061a8153600a858161105f5761105e611ea4565b5b0494505f8503611016575b819350505050919050565b5f60025f8381526020019081526020015f205f9054906101000a900473ffffffffffffffffffffffffffffffffffffffff169050919050565b80806110e657505f73ffffffffffffffffffffffffffffffffffffffff168273ffffffffffffffffffffffffffffffffffffffff1614155b15611218575f6110f584610980565b90505f73ffffffffffffffffffffffffffffffffffffffff168373ffffffffffffffffffffffffffffffffffffffff161415801561115f57508273ffffffffffffffffffffffffffffffffffffffff168173ffffffffffffffffffffffffffffffffffffffff1614155b801561117257506111708184610889565b155b156111b457826040517fa9fbf51f0000000000000000000000000000000000000000000000000000000081526004016111ab9190611862565b60405180910390fd5b811561121657838573ffffffffffffffffffffffffffffffffffffffff168273ffffffffffffffffffffffffffffffffffffffff167f8c5be1e5ebec7d5bd14f71427d1e84f3dd0314c0f7b2291e5b200ac8c7c3b92560405160405180910390a45b505b8360045f8581526020019081526020015f205f6101000a81548173ffffffffffffffffffffffffffffffffffffffff021916908373ffffffffffffffffffffffffffffffffffffffff16021790555050505050565b6112788383836114a4565b61132b575f73ffffffffffffffffffffffffffffffffffffffff168373ffffffffffffffffffffffffffffffffffffffff16036112ec57806040517f7e2732890000000000000000000000000000000000000000000000000000000081526004016112e3919061196d565b60405180910390fd5b81816040517f177e802f000000000000000000000000000000000000000000000000000000008152600401611322929190611ed1565b60405180910390fd5b505050565b61133a8383611564565b61134e611345610a3f565b5f858585610de9565b505050565b5f805f90507a184f03e93ff9f4daa797ed6e38ed64bf6a1f01000000000000000083106113af577a184f03e93ff9f4daa797ed6e38ed64bf6a1f01000000000000000083816113a5576113a4611ea4565b5b0492506040810190505b6d04ee2d6d415b85acef810000000083106113ec576d04ee2d6d415b85acef810000000083816113e2576113e1611ea4565b5b0492506020810190505b662386f26fc10000831061141b57662386f26fc10000838161141157611410611ea4565b5b0492506010810190505b6305f5e1008310611444576305f5e100838161143a57611439611ea4565b5b0492506008810190505b612710831061146957612710838161145f5761145e611ea4565b5b0492506004810190505b6064831061148c576064838161148257611481611ea4565b5b0492506002810190505b600a831061149b576001810190505b80915050919050565b5f8073ffffffffffffffffffffffffffffffffffffffff168373ffffffffffffffffffffffffffffffffffffffff161415801561155b57508273ffffffffffffffffffffffffffffffffffffffff168473ffffffffffffffffffffffffffffffffffffffff16148061151c575061151b8484610889565b5b8061155a57508273ffffffffffffffffffffffffffffffffffffffff1661154283610a06565b73ffffffffffffffffffffffffffffffffffffffff16145b5b90509392505050565b5f73ffffffffffffffffffffffffffffffffffffffff168273ffffffffffffffffffffffffffffffffffffffff16036115d4575f6040517f64a0ae920000000000000000000000000000000000000000000000000000000081526004016115cb9190611862565b60405180910390fd5b5f6115e083835f610a58565b90505f73ffffffffffffffffffffffffffffffffffffffff168173ffffffffffffffffffffffffffffffffffffffff1614611652575f6040517f73c6ac6e0000000000000000000000000000000000000000000000000000000081526004016116499190611862565b60405180910390fd5b505050565b5f604051905090565b5f80fd5b5f80fd5b5f7fffffffff0000000000000000000000000000000000000000000000000000000082169050919050565b61169c81611668565b81146116a6575f80fd5b50565b5f813590506116b781611693565b92915050565b5f602082840312156116d2576116d1611660565b5b5f6116df848285016116a9565b91505092915050565b5f8115159050919050565b6116fc816116e8565b82525050565b5f6020820190506117155f8301846116f3565b92915050565b5f81519050919050565b5f82825260208201905092915050565b5f5b83811015611752578082015181840152602081019050611737565b5f8484015250505050565b5f601f19601f8301169050919050565b5f6117778261171b565b6117818185611725565b9350611791818560208601611735565b61179a8161175d565b840191505092915050565b5f6020820190508181035f8301526117bd818461176d565b905092915050565b5f819050919050565b6117d7816117c5565b81146117e1575f80fd5b50565b5f813590506117f2816117ce565b92915050565b5f6020828403121561180d5761180c611660565b5b5f61181a848285016117e4565b91505092915050565b5f73ffffffffffffffffffffffffffffffffffffffff82169050919050565b5f61184c82611823565b9050919050565b61185c81611842565b82525050565b5f6020820190506118755f830184611853565b92915050565b61188481611842565b811461188e575f80fd5b50565b5f8135905061189f8161187b565b92915050565b5f80604083850312156118bb576118ba611660565b5b5f6118c885828601611891565b92505060206118d9858286016117e4565b9150509250929050565b5f805f606084860312156118fa576118f9611660565b5b5f61190786828701611891565b935050602061191886828701611891565b9250506040611929868287016117e4565b9150509250925092565b5f6020828403121561194857611947611660565b5b5f61195584828501611891565b91505092915050565b611967816117c5565b82525050565b5f6020820190506119805f83018461195e565b92915050565b61198f816116e8565b8114611999575f80fd5b50565b5f813590506119aa81611986565b92915050565b5f80604083850312156119c6576119c5611660565b5b5f6119d385828601611891565b92505060206119e48582860161199c565b9150509250929050565b5f80fd5b5f80fd5b7f4e487b71000000000000000000000000000000000000000000000000000000005f52604160045260245ffd5b611a2c8261175d565b810181811067ffffffffffffffff82111715611a4b57611a4a6119f6565b5b80604052505050565b5f611a5d611657565b9050611a698282611a23565b919050565b5f67ffffffffffffffff821115611a8857611a876119f6565b5b611a918261175d565b9050602081019050919050565b828183375f83830152505050565b5f611abe611ab984611a6e565b611a54565b905082815260208101848484011115611ada57611ad96119f2565b5b611ae5848285611a9e565b509392505050565b5f82601f830112611b0157611b006119ee565b5b8135611b11848260208601611aac565b91505092915050565b5f805f8060808587031215611b3257611b31611660565b5b5f611b3f87828801611891565b9450506020611b5087828801611891565b9350506040611b61878288016117e4565b925050606085013567ffffffffffffffff811115611b8257611b81611664565b5b611b8e87828801611aed565b91505092959194509250565b5f8060408385031215611bb057611baf611660565b5b5f611bbd85828601611891565b9250506020611bce85828601611891565b9150509250929050565b7f4e487b71000000000000000000000000000000000000000000000000000000005f52602260045260245ffd5b5f6002820490506001821680611c1c57607f821691505b602082108103611c2f57611c2e611bd8565b5b50919050565b5f606082019050611c485f830186611853565b611c55602083018561195e565b611c626040830184611853565b949350505050565b7f526563697069656e7420616464726573732063616e6e6f74206265207a65726f5f8201527f20616464726573732e0000000000000000000000000000000000000000000000602082015250565b5f611cc4602983611725565b9150611ccf82611c6a565b604082019050919050565b5f6020820190508181035f830152611cf181611cb8565b9050919050565b7f4e487b71000000000000000000000000000000000000000000000000000000005f52601160045260245ffd5b5f611d2f826117c5565b91507fffffffffffffffffffffffffffffffffffffffffffffffffffffffffffffffff8203611d6157611d60611cf8565b5b600182019050919050565b5f81905092915050565b5f611d808261171b565b611d8a8185611d6c565b9350611d9a818560208601611735565b80840191505092915050565b5f611db18285611d76565b9150611dbd8284611d76565b91508190509392505050565b5f81519050919050565b5f82825260208201905092915050565b5f611ded82611dc9565b611df78185611dd3565b9350611e07818560208601611735565b611e108161175d565b840191505092915050565b5f608082019050611e2e5f830187611853565b611e3b6020830186611853565b611e48604083018561195e565b8181036060830152611e5a8184611de3565b905095945050505050565b5f81519050611e7381611693565b92915050565b5f60208284031215611e8e57611e8d611660565b5b5f611e9b84828501611e65565b91505092915050565b7f4e487b71000000000000000000000000000000000000000000000000000000005f52601260045260245ffd5b5f604082019050611ee45f830185611853565b611ef1602083018461195e565b939250505056fea2646970667358221220861d38abe0dd0d700bd1af562a0a7edfdf573b9fdd619ba49b2fa627899e0b1d64736f6c63430008150033",
  "immutableReferences": {},
  "source": "// NFT.sol\r\n// SPDX-License-Identifier: MIT\r\npragma solidity ^0.8.0;\r\n\r\nimport \"@openzeppelin/contracts/token/ERC721/ERC721.sol\";\r\n\r\ncontract NFT is ERC721 {\r\n    uint256 public tokenCounter = 0;\r\n\r\n    constructor() ERC721(\"NFTMarketplace\", \"NFTM\") {\r\n        tokenCounter = 0;  // Initialize tokenCounter\r\n    }\r\n\r\n    function mintNFT(address recipient) public returns (uint256) {\r\n        require(recipient != address(0), \"Recipient address cannot be zero address.\");\r\n        \r\n        uint256 tokenId = tokenCounter;\r\n        _safeMint(recipient, tokenId);\r\n        tokenCounter++;  // Increment tokenCounter after minting\r\n        return tokenId;\r\n    }\r\n}\r\n",
  "sourcePath": "C:\\Picnic\\DES484-NFT-Auction\\contracts\\NFT.sol",
  "compiler": {
    "name": "solc",
    "version": "0.8.21+commit.d9974bed.Emscripten.clang"
  },
  "schemaVersion": "3.4.16",
  "updatedAt": "2024-12-14T16:04:42.934Z",
  "networkType": "ethereum",
  "devdoc": {
    "errors": {
      "ERC721IncorrectOwner(address,uint256,address)": [
        {
          "details": "Indicates an error related to the ownership over a particular token. Used in transfers.",
          "params": {
            "owner": "Address of the current owner of a token.",
            "sender": "Address whose tokens are being transferred.",
            "tokenId": "Identifier number of a token."
          }
        }
      ],
      "ERC721InsufficientApproval(address,uint256)": [
        {
          "details": "Indicates a failure with the `operator`s approval. Used in transfers.",
          "params": {
            "operator": "Address that may be allowed to operate on tokens without being their owner.",
            "tokenId": "Identifier number of a token."
          }
        }
      ],
      "ERC721InvalidApprover(address)": [
        {
          "details": "Indicates a failure with the `approver` of a token to be approved. Used in approvals.",
          "params": {
            "approver": "Address initiating an approval operation."
          }
        }
      ],
      "ERC721InvalidOperator(address)": [
        {
          "details": "Indicates a failure with the `operator` to be approved. Used in approvals.",
          "params": {
            "operator": "Address that may be allowed to operate on tokens without being their owner."
          }
        }
      ],
      "ERC721InvalidOwner(address)": [
        {
          "details": "Indicates that an address can't be an owner. For example, `address(0)` is a forbidden owner in ERC-20. Used in balance queries.",
          "params": {
            "owner": "Address of the current owner of a token."
          }
        }
      ],
      "ERC721InvalidReceiver(address)": [
        {
          "details": "Indicates a failure with the token `receiver`. Used in transfers.",
          "params": {
            "receiver": "Address to which tokens are being transferred."
          }
        }
      ],
      "ERC721InvalidSender(address)": [
        {
          "details": "Indicates a failure with the token `sender`. Used in transfers.",
          "params": {
            "sender": "Address whose tokens are being transferred."
          }
        }
      ],
      "ERC721NonexistentToken(uint256)": [
        {
          "details": "Indicates a `tokenId` whose `owner` is the zero address.",
          "params": {
            "tokenId": "Identifier number of a token."
          }
        }
      ]
    },
    "events": {
      "Approval(address,address,uint256)": {
        "details": "Emitted when `owner` enables `approved` to manage the `tokenId` token."
      },
      "ApprovalForAll(address,address,bool)": {
        "details": "Emitted when `owner` enables or disables (`approved`) `operator` to manage all of its assets."
      },
      "Transfer(address,address,uint256)": {
        "details": "Emitted when `tokenId` token is transferred from `from` to `to`."
      }
    },
    "kind": "dev",
    "methods": {
      "approve(address,uint256)": {
        "details": "See {IERC721-approve}."
      },
      "balanceOf(address)": {
        "details": "See {IERC721-balanceOf}."
      },
      "getApproved(uint256)": {
        "details": "See {IERC721-getApproved}."
      },
      "isApprovedForAll(address,address)": {
        "details": "See {IERC721-isApprovedForAll}."
      },
      "name()": {
        "details": "See {IERC721Metadata-name}."
      },
      "ownerOf(uint256)": {
        "details": "See {IERC721-ownerOf}."
      },
      "safeTransferFrom(address,address,uint256)": {
        "details": "See {IERC721-safeTransferFrom}."
      },
      "safeTransferFrom(address,address,uint256,bytes)": {
        "details": "See {IERC721-safeTransferFrom}."
      },
      "setApprovalForAll(address,bool)": {
        "details": "See {IERC721-setApprovalForAll}."
      },
      "supportsInterface(bytes4)": {
        "details": "See {IERC165-supportsInterface}."
      },
      "symbol()": {
        "details": "See {IERC721Metadata-symbol}."
      },
      "tokenURI(uint256)": {
        "details": "See {IERC721Metadata-tokenURI}."
      },
      "transferFrom(address,address,uint256)": {
        "details": "See {IERC721-transferFrom}."
      }
    },
    "version": 1
  },
  "userdoc": {
    "kind": "user",
    "methods": {},
    "version": 1
  }
}